:03000000020006F5
:0C000600787FE4F6D8FD758120020251DD
:100430005370656564206D6F746F7220746573749A
:1004400020210050726F636573732E2E2E0053743B
:0E045000617274202E2E2E005270733A20001E
:10052500E4FDFCC3ED9FEC9E50070DBD00010C8062
:01053500F2D3
:0105360022A2
:04045E007FE87E03B2
:10046200E4FDFCC3ED9FEC9E5015E4FBFA0BBB00D0
:0F047200010AEB647D4A70F50DBD00010C80E4BA
:010481002258
:0304FF001204E301
:10050200D2A27F037E00120525C2A27F32020525F8
:1004E300EF1392A4EFC3131392A5EF1313543F1307
:0C04F30092A6EF131313541F1392A722BC
:10053700AB07EBC4540FFF1204FFAF031204E3022F
:020547000502AB
:0C0549007F011205377F0A7E00020525A5
:1003EB00E4FF1204E37F147E00120462C2A0C2A1D8
:1003FB007F031204FF7F057E001204621205027F49
:10040B00647E001205251205027F021204E3120519
:10041B00027F281205377F0C1205377F061205372E
:05042B007F010205370E
:1004A500ED7006EF2480FA8004EF24C0FA7FE87E21
:1004B50003120525AF021205377F327E000205259E
:030555002430FF50
:08055800D2A0120537C2A02257
:100482008B1E8A1F8920AB1EAA1FA9201201D5FF2D
:10049200601012055874012520F520E4351FF51F60
:0304A20080E422D1
:03000300020512E1
:10051200C0E020B20BE51D451C7005F51C751D01E0
:03052200D0E032F4
:030013000204C51F
:1004C500C0E0E51D6401451C701120B30E051BE558
:0E04D5001B7002051A751C00751D00D0E03268
:03001B000203607D
:10036000C0E0C0F0C083C082C0D075D000C000C063
:1003700001C002C003C004C005C006C007E51915CE
:10038000197002151814640145187008758D7B7575
:100390008B90803CE51945187036AE1AAF1BFC7D7A
:1003A0000C1201EEAC06AD07E412011BE4FBFAF9F6
:1003B000783F1200258F178E168D158C141201545C
:1003C0008E088F09751A00751B0075180075191FA6
:1003D000D007D006D005D004D003D002D001D00081
:0B03E000D0D0D082D083D0F0D0E0322B
:100251001203EB12045E7BFF7A04793012048212DE
:10026100045E120549E4FDFF1204A57BFF7A0479BF
:10027100431204827FD07E071204627D01E4FF12E3
:1002810004A57BFF7A04794E120482D288D28AD2E5
:10029100AFD2ABD2AAD2A843891053891F12045EF0
:1002A1001205497F2C7E011204627BFF7A04795882
:1002B10012048275180075191FD28EAE08AF097C21
:1002C100277D101201EE8E128F13AE08AF097C2725
:1002D1007D101201EEAA04AB057DE87C03AF03AEED
:1002E100021201EE8E108F117DE87C03AF03AE0286
:1002F1001201EEAA04AB057D647C00AF03AE0212CD
:1003010001EE8E0E8F0F7D647C00AF03AE021201F1
:10031100EEAA04AB057D0A7C00AF03AE021201EE2A
:100321008E0C8F0D7D0A7C00AF03AE021201EE8CA4
:100331000A8D0BE4FD7F051204A5E513120555E5B1
:1003410011120555E50F2430FF120558E50D243033
:0F035100FF120558E50B2430FF1205580202BCBD
:10001E000201C0E86480F8E933E83360110460F04F
:10002E00ED33EC337009E8FCE9FDEAFEEBFF220448
:10003E0060DED3EB9FEA9EE99DE8C2E78CF0C2F743
:10004E0095F0400CE8CCF8E9CDF9EACEFAEBCFFB0F
:10005E0012018B85D0F05804700320D5B3E80470DC
:10006E00075002B2D50201CA92D5EC0460F7E4CC77
:10007E00C0E0C398F8603B94186008400DD0E0FBD8
:10008E000201A2E4FBFAC9FC8028E830E406E4C9C8
:10009E00FBE4CAFCE830E305E4C9CACBFCE854072C
:1000AE006010F8C3E913F9EA13FAEB13FBEC13FC37
:1000BE00D8F130F52FC3E49CFCEF9BFFEE9AFEEDDA
:1000CE0099FDD0E0FBEF4E4D4C701222DB03020186
:1000DE00C7EC2CFCEF33FFEE33FEED33FDED30E7D6
:1000EE00EB0201A2EF2BFFEE3AFEED39FDD0E0FB65
:1000FE0050130BBB00030201CAED13FDEE13FEEF0E
:08010E0013FFEC13FC0201A237
:1001160075F020800E75F010800575F0087D007E64
:10012600007F003392D530D503120243EC334010E2
:10013600EF33FFEE33FEED33FDEC33FCD5F0ED226D
:0E014600E5F0247EA2D513CC92E7CDCEFF22A9
:10015400EDD2E7CD33EC3392D524814006E4FFFEA3
:10016400FDFC22FCE4CFCECDCC24E0501174FF8002
:10017400EDC3CC13CCCD13CDCE13CECF13CF04709F
:07018400F030D5DE0202435A
:10018B00E9D2E7C933E833F892D5EDD2E7CD33ECBA
:07019B0033FC5002B2D52233
:1001A200EC30E7100FBF000C0EBE00080DBD0004BE
:1001B2000BEB6014A2D5EB13FCED92E7FD2274FF6A
:1001C200FCFDFEFF22E480F8A2D574FF13FC7D80C3
:0301D200E480EFD7
:1001D500BB010689828A83E0225002E722BBFE0228
:0901E500E32289828A83E493225B
:1001EE00BC000BBE0029EF8DF084FFADF022E4CCF5
:1001FE00F875F008EF2FFFEE33FEEC33FCEE9DECBE
:10020E00984005FCEE9DFE0FD5F0E9E4CEFD22ED03
:10021E00F8F5F0EE8420D21CFEADF075F008EF2F4D
:10022E00FFED33FD4007985006D5F0F222C398FD3E
:05023E000FD5F0EA22DB
:0E024300C3E49FFFE49EFEE49DFDE49CFC22CC
:00000001FF
