:030000000201CA30
:0C01CA00787FE4F6D8FD75810F02000E6E
:03000B0002011ED1
:10011E00C0E0C0F0C0D075D000C000C004C005C0A3
:10012E0006C007E50D150D7002150C14450C701266
:10013E00B292AE0EAF0FFC7D031201878E0C8F0DA7
:10014E008026E50DB50F0BE50CB50E06A292929327
:10015E008016E50F25E0FFE50E33FEEFB50D09EE37
:10016E00B50C05A292B39294D007D006D005D00458
:09017E00D000D0D0D0F0D0E03266
:10000E00E4F590D2AFD2A9758902758C09758A096B
:10001E00F50BF50AF509F508E47FFF7EFFFDFCAB55
:10002E000BAA0AA909A808C31201995017E50B24B7
:10003E0001F50BE4350AF50AE43509F509E435084E
:10004E00F50880D4750E00750F6FAE0EAF0F7C00E5
:10005E007D031201878E0C8F0DD28CE4750B887583
:10006E000A13F509F508780874FF1201ACE4FBFADF
:10007E00F9F8C312019970EED3E50F9446E50E948C
:10008E00004009E4750B40750A1F804ED3E50F94AE
:10009E0032E50E94004009E4750B10750A27803A7C
:1000AE00D3E50F941EE50E94004009E4750B207500
:1000BE000A4E8026D3E50F9414E50E94004009E411
:1000CE00750B40750A9C8012D3E50F940DE50E94C6
:1000DE0000400DE4750B60750AEAF509F508801706
:1000EE00D3E50F9407E50E9400400C750BA0750A2E
:1000FE0086750901750800D3E50F9407E50E940087
:10010E005003020074E50F150F7002150E020074F5
:10018700EF8DF0A4A8F0CF8CF0A428CE8DF0A42E8C
:02019700FE2246
:10019900EB9FF5F0EA9E42F0E99D42F0E89C45F0BC
:0101A9002233
:1001AA007401FF3395E0FEFDFC080808E62FFFF610
:1001BA0018E63EFEF618E63DFDF618E63CFCF62289
:00000001FF
