:0300000002000EED
:0C000E00787FE4F6D8FD75812002013DEA
:1003E500416E20546F2050726573656E74005465BC
:1003F5007374204C43442E2E2E2E2E2E2E004F4B42
:100405002121212100526F756E643A2000537065D9
:090415006564207270733A200046
:1004D300E4FDFCC3ED9FEC9E50070DBD00010C80B5
:0104E300F226
:0104E40022F5
:04041E007FE87E03F2
:10042200E4FDFCC3ED9FEC9E5015E4FBFA0BBB0010
:0F043200010AEB647D4A70F50DBD00010C80E4FA
:010441002298
:0304C0001204A47F
:1004C300D2937F037E001204D3C2937F320204D3FC
:1004A400EF139294EFC313139295EF1313543F1366
:0C04B4009296EF131313541F139297221B
:1004E500AB07EBC4540FFF1204C0AF031204A40200
:0204F50004C33E
:0C0506007F011204E57F0A7E000204D38E
:1003A000E4FF1204A47F147E00120422C2B7C2929A
:1003B0007F031204C07F057E001204221204C37F53
:1003C000647E001204D31204C37F021204A4120438
:1003D000C37F281204E57F0C1204E57F061204E5B2
:0503E0007F010204E5AD
:10046500ED7006EF2480FA8004EF24C0FA7FE87E61
:10047500031204D3AF021204E57F327E000204D3D7
:0704F70012026FEF2430FF39
:0804FE00D2B71204E5C2B722D7
:100442008B1E8A1F8920AB1EAA1FA920120244FFFD
:1004520060101204FE74012520F520E4351FF51FFB
:0304620080E42211
:03000B0002048567
:10048500C0E0E509150970021508144508700D202E
:0F049500B402D2B4750800750928C28CD0E032C9
:03000300020313E2
:10031300C0E020B40302039DC2B4D28C0519E519D1
:1003230070020518640245187070F518F519050D6B
:10033300E50D7002050C640A450C705EF50CF50DB5
:10034300050FE50F7002050E640A450E704CF50E9D
:10035300F50F0511E51170020510640A4510703A96
:10036300F510F5110513E51370020512640A451221
:100373007028F512F5130515E51570020514640AC6
:1003830045147016F514F5150517E51770020516D3
:0D039300640A45167004F516F517D0E03227
:03001B0002001EC2
:10001E00C0E0C0F0C083C082C0D075D000C000C0A8
:10002E0001C002C003C004C005C006C007E51B1511
:10003E001B7002151AE51B6427451A7062AE16AFC7
:10004E0017FCFD7BA07A867901F81202C4AB07AAD1
:10005E0006AE14AF157C277D1012025DEF2BFBEE62
:10006E003AFAAE12AF137C037DE812025DEF2BFB62
:10007E00EE3AFAAE10AF117C007D6412025DEF2BEA
:10008E00FBEE3AFAAE0EAF0F7D0A12025DEF2BFFBA
:10009E00EE3AFEE50D2FF51DE50C3EF51C8075E5DF
:1000AE001B451A706FAE16AF17FCFD7BA07A8679D2
:1000BE0001F81202C4AB07AA06AE14AF157C277D59
:1000CE001012025DEF2BFBEE3AFAAE12AF137C0369
:1000DE007DE812025DEF2BFBEE3AFAAE10AF117C0B
:1000EE00007D6412025DEF2BFBEE3AFAAE0EAF0FFF
:1000FE007D0A12025DEF2BFFEE3AFEE50D2FFFE5B6
:10010E000C3EFEC3EF951DF50BEE951CF50A751A08
:10011E0000751B28D007D006D005D004D003D0021E
:0F012E00D001D000D0D0D082D083D0F0D0E0323A
:10013D001203A012041E7BFF7A0379E5120442120A
:10014D00041E120506E4FDFF1204657BFF7A037998
:10015D00F312044212041E7D01E4FF1204657BFFBD
:10016D007A04790312044212041ED2AFD2A9D2AB83
:10017D00D288758912758C06758A06758DC3758B37
:10018D0050751A00751B287508007509281205068B
:10019D007F2C7E011204227BFF7A04790A1204421D
:1001AD007D01E4FF1204657BFF7A0479121204428B
:1001BD00D2A8D28EE4FD7F09120465E5172430FF25
:1001CD001204FEE5152430FF1204FEE5132430FF62
:1001DD001204FEE5112430FF1204FEE50F2430FF5A
:1001ED001204FEE50D2430FF1204FE7D017F0B127B
:1001FD000465AE0AAF0B7C007D641204F7AE0AAF46
:10020D000B7C007D6412026F7E007F0ACFCDCFCEB6
:10021D00CCCE1204F7AE0AAF0B7C007D6412026FD8
:10022D007E007F0ACFCDCFCECCCE12026FED243023
:07023D00FF1204FE0201C1E3
:10024400BB010689828A83E0225002E722BBFE02B8
:09025400E32289828A83E49322EB
:10025D00EF8DF0A4A8F0CF8CF0A428CE8DF0A42EB5
:02026D00FE226F
:10026F00BC000BBE0029EF8DF084FFADF022E4CC73
:10027F00F875F008EF2FFFEE33FEEC33FCEE9DEC3C
:10028F00984005FCEE9DFE0FD5F0E9E4CEFD22ED82
:10029F00F8F5F0EE8420D21CFEADF075F008EF2FCC
:1002AF00FFED33FD4007985006D5F0F222C398FDBD
:0502BF000FD5F0EA225A
:1002C400E88FF0A4CC8BF0A42CFCE98EF0A42CFCD9
:1002D4008AF0EDA42CFCEA8EF0A4CDA8F08BF0A457
:1002E4002DCC3825F0FDE98FF0A42CCD35F0FCEBB6
:1002F4008EF0A4FEA9F0EB8FF0A4CFC5F02ECD397B
:0F030400FEE43CFCEAA42DCE35F0FDE43CFC22E7
:00000001FF
