:0300000002000EED
:0C000E00787FE4F6D8FD75810F020150E8
:03000B00020003ED
:03000300B2B7325F
:03001B000200A937
:1000A900C0E0C0F0C083C082C0D075D000C000C01D
:1000B90001C002C003C004C005C006C007E5091598
:1000C900097002150814450870151201037C037D97
:1000D900E812001EED2464F58C750801750990D0AD
:1000E90007D006D005D004D003D002D001D000D06B
:0A00F900D0D082D083D0F0D0E032E6
:10015000D2B7D2AFD2A9D2AB758922758B06758D75
:1001600006758A83758C83750801750990D28ED2C5
:0A0170008CAF8C7E0012014580FE6A
:10001E00C2D5EC30E709B2D5E4C39DFDE49CFCEEFD
:10002E0030E715B2D5E4C39FFFE49EFE120054C321
:10003E00E49DFDE49CFC800312005430D507C3E41C
:06004E009FFFE49EFE226C
:10010300AC0CAD0DAE0EAF0F7810EC4D4E4F70042E
:100113007CA57DA5C3EC13FCED13FDEE13FEEF13DD
:10012300FF5010EC64CCFCED644CFDEE644EFEEF2E
:1001330064CEFFD8DF8C0C8D0D8E0E8F0FEE547FA7
:0D014300FE228E0C8F0D74A5F50EF50F2217
:10005400BC000BBE0029EF8DF084FFADF022E4CC90
:10006400F875F008EF2FFFEE33FEEC33FCEE9DEC59
:10007400984005FCEE9DFE0FD5F0E9E4CEFD22ED9F
:10008400F8F5F0EE8420D21CFEADF075F008EF2FE9
:10009400FFED33FD4007985006D5F0F222C398FDDA
:0500A4000FD5F0EA2277
:00000001FF
